{
  "_format": "hh-sol-artifact-1",
  "contractName": "USDSV1",
  "sourceName": "contracts/USDSV1.sol",
  "abi": [
    {
      "anonymous": false,
      "inputs": [
        {
          "indexed": true,
          "internalType": "address",
          "name": "user",
          "type": "address"
        }
      ],
      "name": "AddedBlackList",
      "type": "event"
    },
    {
      "anonymous": false,
      "inputs": [
        {
          "indexed": true,
          "internalType": "address",
          "name": "owner",
          "type": "address"
        },
        {
          "indexed": true,
          "internalType": "address",
          "name": "spender",
          "type": "address"
        },
        {
          "indexed": false,
          "internalType": "uint256",
          "name": "value",
          "type": "uint256"
        }
      ],
      "name": "Approval",
      "type": "event"
    },
    {
      "anonymous": false,
      "inputs": [
        {
          "indexed": false,
          "internalType": "address",
          "name": "newAddress",
          "type": "address"
        }
      ],
      "name": "Deprecate",
      "type": "event"
    },
    {
      "anonymous": false,
      "inputs": [
        {
          "indexed": true,
          "internalType": "address",
          "name": "user",
          "type": "address"
        },
        {
          "indexed": false,
          "internalType": "uint256",
          "name": "balance",
          "type": "uint256"
        }
      ],
      "name": "DestroyedBlackFunds",
      "type": "event"
    },
    {
      "anonymous": false,
      "inputs": [
        {
          "indexed": false,
          "internalType": "uint256",
          "name": "amount",
          "type": "uint256"
        }
      ],
      "name": "Issue",
      "type": "event"
    },
    {
      "anonymous": false,
      "inputs": [
        {
          "indexed": false,
          "internalType": "uint256",
          "name": "feeBasisPoints",
          "type": "uint256"
        },
        {
          "indexed": false,
          "internalType": "uint256",
          "name": "maxFee",
          "type": "uint256"
        }
      ],
      "name": "Params",
      "type": "event"
    },
    {
      "anonymous": false,
      "inputs": [],
      "name": "Pause",
      "type": "event"
    },
    {
      "anonymous": false,
      "inputs": [
        {
          "indexed": false,
          "internalType": "uint256",
          "name": "amount",
          "type": "uint256"
        }
      ],
      "name": "Redeem",
      "type": "event"
    },
    {
      "anonymous": false,
      "inputs": [
        {
          "indexed": true,
          "internalType": "address",
          "name": "user",
          "type": "address"
        }
      ],
      "name": "RemovedBlackList",
      "type": "event"
    },
    {
      "anonymous": false,
      "inputs": [
        {
          "indexed": true,
          "internalType": "address",
          "name": "from",
          "type": "address"
        },
        {
          "indexed": true,
          "internalType": "address",
          "name": "to",
          "type": "address"
        },
        {
          "indexed": false,
          "internalType": "uint256",
          "name": "value",
          "type": "uint256"
        }
      ],
      "name": "Transfer",
      "type": "event"
    },
    {
      "anonymous": false,
      "inputs": [],
      "name": "Unpause",
      "type": "event"
    },
    {
      "inputs": [
        {
          "internalType": "address",
          "name": "user",
          "type": "address"
        }
      ],
      "name": "addBlackList",
      "outputs": [],
      "stateMutability": "nonpayable",
      "type": "function"
    },
    {
      "inputs": [
        {
          "internalType": "address",
          "name": "account",
          "type": "address"
        },
        {
          "internalType": "address",
          "name": "spender",
          "type": "address"
        }
      ],
      "name": "allowance",
      "outputs": [
        {
          "internalType": "uint256",
          "name": "",
          "type": "uint256"
        }
      ],
      "stateMutability": "view",
      "type": "function"
    },
    {
      "inputs": [
        {
          "internalType": "address",
          "name": "",
          "type": "address"
        },
        {
          "internalType": "address",
          "name": "",
          "type": "address"
        }
      ],
      "name": "allowances",
      "outputs": [
        {
          "internalType": "uint256",
          "name": "",
          "type": "uint256"
        }
      ],
      "stateMutability": "view",
      "type": "function"
    },
    {
      "inputs": [
        {
          "internalType": "address",
          "name": "spender",
          "type": "address"
        },
        {
          "internalType": "uint256",
          "name": "amount",
          "type": "uint256"
        }
      ],
      "name": "approve",
      "outputs": [
        {
          "internalType": "bool",
          "name": "",
          "type": "bool"
        }
      ],
      "stateMutability": "nonpayable",
      "type": "function"
    },
    {
      "inputs": [
        {
          "internalType": "address",
          "name": "account",
          "type": "address"
        }
      ],
      "name": "balanceOf",
      "outputs": [
        {
          "internalType": "uint256",
          "name": "",
          "type": "uint256"
        }
      ],
      "stateMutability": "view",
      "type": "function"
    },
    {
      "inputs": [
        {
          "internalType": "address",
          "name": "",
          "type": "address"
        }
      ],
      "name": "balances",
      "outputs": [
        {
          "internalType": "uint256",
          "name": "",
          "type": "uint256"
        }
      ],
      "stateMutability": "view",
      "type": "function"
    },
    {
      "inputs": [],
      "name": "basisPointsRate",
      "outputs": [
        {
          "internalType": "uint256",
          "name": "",
          "type": "uint256"
        }
      ],
      "stateMutability": "view",
      "type": "function"
    },
    {
      "inputs": [],
      "name": "decimals",
      "outputs": [
        {
          "internalType": "uint8",
          "name": "",
          "type": "uint8"
        }
      ],
      "stateMutability": "view",
      "type": "function"
    },
    {
      "inputs": [
        {
          "internalType": "address",
          "name": "newAddress",
          "type": "address"
        }
      ],
      "name": "deprecate",
      "outputs": [],
      "stateMutability": "nonpayable",
      "type": "function"
    },
    {
      "inputs": [],
      "name": "deprecated",
      "outputs": [
        {
          "internalType": "bool",
          "name": "",
          "type": "bool"
        }
      ],
      "stateMutability": "view",
      "type": "function"
    },
    {
      "inputs": [
        {
          "internalType": "address",
          "name": "user",
          "type": "address"
        }
      ],
      "name": "destroyBlackFunds",
      "outputs": [],
      "stateMutability": "nonpayable",
      "type": "function"
    },
    {
      "inputs": [
        {
          "internalType": "string",
          "name": "_name",
          "type": "string"
        },
        {
          "internalType": "string",
          "name": "_symbol",
          "type": "string"
        },
        {
          "internalType": "uint8",
          "name": "_decimals",
          "type": "uint8"
        },
        {
          "internalType": "uint256",
          "name": "_initialSupply",
          "type": "uint256"
        }
      ],
      "name": "initialize",
      "outputs": [],
      "stateMutability": "nonpayable",
      "type": "function"
    },
    {
      "inputs": [
        {
          "internalType": "address",
          "name": "",
          "type": "address"
        }
      ],
      "name": "isBlackListed",
      "outputs": [
        {
          "internalType": "bool",
          "name": "",
          "type": "bool"
        }
      ],
      "stateMutability": "view",
      "type": "function"
    },
    {
      "inputs": [
        {
          "internalType": "uint256",
          "name": "amount",
          "type": "uint256"
        }
      ],
      "name": "issue",
      "outputs": [],
      "stateMutability": "nonpayable",
      "type": "function"
    },
    {
      "inputs": [],
      "name": "maximumFee",
      "outputs": [
        {
          "internalType": "uint256",
          "name": "",
          "type": "uint256"
        }
      ],
      "stateMutability": "view",
      "type": "function"
    },
    {
      "inputs": [],
      "name": "name",
      "outputs": [
        {
          "internalType": "string",
          "name": "",
          "type": "string"
        }
      ],
      "stateMutability": "view",
      "type": "function"
    },
    {
      "inputs": [],
      "name": "owner",
      "outputs": [
        {
          "internalType": "address",
          "name": "",
          "type": "address"
        }
      ],
      "stateMutability": "view",
      "type": "function"
    },
    {
      "inputs": [],
      "name": "pause",
      "outputs": [],
      "stateMutability": "nonpayable",
      "type": "function"
    },
    {
      "inputs": [],
      "name": "paused",
      "outputs": [
        {
          "internalType": "bool",
          "name": "",
          "type": "bool"
        }
      ],
      "stateMutability": "view",
      "type": "function"
    },
    {
      "inputs": [
        {
          "internalType": "uint256",
          "name": "amount",
          "type": "uint256"
        }
      ],
      "name": "redeem",
      "outputs": [],
      "stateMutability": "nonpayable",
      "type": "function"
    },
    {
      "inputs": [
        {
          "internalType": "address",
          "name": "user",
          "type": "address"
        }
      ],
      "name": "removeBlackList",
      "outputs": [],
      "stateMutability": "nonpayable",
      "type": "function"
    },
    {
      "inputs": [
        {
          "internalType": "uint256",
          "name": "newBasisPoints",
          "type": "uint256"
        },
        {
          "internalType": "uint256",
          "name": "newMaxFee",
          "type": "uint256"
        }
      ],
      "name": "setParams",
      "outputs": [],
      "stateMutability": "nonpayable",
      "type": "function"
    },
    {
      "inputs": [],
      "name": "symbol",
      "outputs": [
        {
          "internalType": "string",
          "name": "",
          "type": "string"
        }
      ],
      "stateMutability": "view",
      "type": "function"
    },
    {
      "inputs": [],
      "name": "totalSupply",
      "outputs": [
        {
          "internalType": "uint256",
          "name": "",
          "type": "uint256"
        }
      ],
      "stateMutability": "view",
      "type": "function"
    },
    {
      "inputs": [
        {
          "internalType": "address",
          "name": "to",
          "type": "address"
        },
        {
          "internalType": "uint256",
          "name": "amount",
          "type": "uint256"
        }
      ],
      "name": "transfer",
      "outputs": [
        {
          "internalType": "bool",
          "name": "",
          "type": "bool"
        }
      ],
      "stateMutability": "nonpayable",
      "type": "function"
    },
    {
      "inputs": [
        {
          "internalType": "address",
          "name": "from",
          "type": "address"
        },
        {
          "internalType": "address",
          "name": "to",
          "type": "address"
        },
        {
          "internalType": "uint256",
          "name": "amount",
          "type": "uint256"
        }
      ],
      "name": "transferFrom",
      "outputs": [
        {
          "internalType": "bool",
          "name": "",
          "type": "bool"
        }
      ],
      "stateMutability": "nonpayable",
      "type": "function"
    },
    {
      "inputs": [
        {
          "internalType": "address",
          "name": "newOwner",
          "type": "address"
        }
      ],
      "name": "transferOwnership",
      "outputs": [],
      "stateMutability": "nonpayable",
      "type": "function"
    },
    {
      "inputs": [],
      "name": "unpause",
      "outputs": [],
      "stateMutability": "nonpayable",
      "type": "function"
    },
    {
      "inputs": [],
      "name": "upgradedAddress",
      "outputs": [
        {
          "internalType": "address",
          "name": "",
          "type": "address"
        }
      ],
      "stateMutability": "view",
      "type": "function"
    }
  ],
  "bytecode": "0x60806040526000600755600060085534801561001a57600080fd5b50336000806101000a81548173ffffffffffffffffffffffffffffffffffffffff021916908373ffffffffffffffffffffffffffffffffffffffff1602179055506131228061006a6000396000f3fe608060405234801561001057600080fd5b50600436106101cf5760003560e01c80635c975abb11610104578063cc872b66116100a2578063e47d606011610071578063e47d60601461050c578063e4997dc51461053c578063f2fde38b14610558578063f3bdc22814610574576101cf565b8063cc872b6614610486578063db006a75146104a2578063dd62ed3e146104be578063dd644f72146104ee576101cf565b80638da5cb5b116100de5780638da5cb5b146103fe57806395d89b411461041c578063a9059cbb1461043a578063c0324c771461046a576101cf565b80635c975abb146103a657806370a08231146103c45780638456cb59146103f4576101cf565b8063253279ad11610171578063313ce5671161014b578063313ce56714610330578063353907141461034e5780633f4ba83a1461036c57806355b6ed5c14610376576101cf565b8063253279ad146102c657806326976e3f146102e257806327e235e314610300576101cf565b80630e136b19116101ad5780630e136b191461023e5780630ecb93c01461025c57806318160ddd1461027857806323b872dd14610296576101cf565b806306fdde03146101d45780630753c30c146101f2578063095ea7b31461020e575b600080fd5b6101dc610590565b6040516101e991906120ba565b60405180910390f35b61020c6004803603810190610207919061214e565b61061e565b005b610228600480360381019061022391906121b1565b610742565b604051610235919061220c565b60405180910390f35b610246610834565b604051610253919061220c565b60405180910390f35b6102766004803603810190610271919061214e565b610847565b005b610280610972565b60405161028d9190612236565b60405180910390f35b6102b060048036038101906102ab9190612251565b610978565b6040516102bd919061220c565b60405180910390f35b6102e060048036038101906102db9190612412565b610bbd565b005b6102ea610cf4565b6040516102f791906124c0565b60405180910390f35b61031a6004803603810190610315919061214e565b610d1a565b6040516103279190612236565b60405180910390f35b610338610d32565b60405161034591906124ea565b60405180910390f35b610356610d45565b6040516103639190612236565b60405180910390f35b610374610d4b565b005b610390600480360381019061038b9190612505565b610e70565b60405161039d9190612236565b60405180910390f35b6103ae610e95565b6040516103bb919061220c565b60405180910390f35b6103de60048036038101906103d9919061214e565b610ea8565b6040516103eb9190612236565b60405180910390f35b6103fc610ef1565b005b610406611018565b60405161041391906124c0565b60405180910390f35b61042461103c565b60405161043191906120ba565b60405180910390f35b610454600480360381019061044f91906121b1565b6110ca565b604051610461919061220c565b60405180910390f35b610484600480360381019061047f9190612545565b6111bd565b005b6104a0600480360381019061049b9190612585565b611346565b005b6104bc60048036038101906104b79190612585565b611524565b005b6104d860048036038101906104d39190612505565b6117a5565b6040516104e59190612236565b60405180910390f35b6104f661182c565b6040516105039190612236565b60405180910390f35b6105266004803603810190610521919061214e565b611832565b604051610533919061220c565b60405180910390f35b6105566004803603810190610551919061214e565b611852565b005b610572600480360381019061056d919061214e565b61197e565b005b61058e6004803603810190610589919061214e565b611abe565b005b6002805461059d906125e1565b80601f01602080910402602001604051908101604052809291908181526020018280546105c9906125e1565b80156106165780601f106105eb57610100808354040283529160200191610616565b820191906000526020600020905b8154815290600101906020018083116105f957829003601f168201915b505050505081565b60008054906101000a900473ffffffffffffffffffffffffffffffffffffffff1673ffffffffffffffffffffffffffffffffffffffff163373ffffffffffffffffffffffffffffffffffffffff16146106ac576040517f08c379a00000000000000000000000000000000000000000000000000000000081526004016106a39061265e565b60405180910390fd5b6001600660006101000a81548160ff02191690831515021790555080600660016101000a81548173ffffffffffffffffffffffffffffffffffffffff021916908373ffffffffffffffffffffffffffffffffffffffff1602179055507fcc358699805e9a8b7f77b522628c7cb9abd07d9efb86b6fb616af1609036a99e8160405161073791906124c0565b60405180910390a150565b600081600b60003373ffffffffffffffffffffffffffffffffffffffff1673ffffffffffffffffffffffffffffffffffffffff16815260200190815260200160002060008573ffffffffffffffffffffffffffffffffffffffff1673ffffffffffffffffffffffffffffffffffffffff168152602001908152602001600020819055508273ffffffffffffffffffffffffffffffffffffffff163373ffffffffffffffffffffffffffffffffffffffff167f8c5be1e5ebec7d5bd14f71427d1e84f3dd0314c0f7b2291e5b200ac8c7c3b925846040516108229190612236565b60405180910390a36001905092915050565b600660009054906101000a900460ff1681565b60008054906101000a900473ffffffffffffffffffffffffffffffffffffffff1673ffffffffffffffffffffffffffffffffffffffff163373ffffffffffffffffffffffffffffffffffffffff16146108d5576040517f08c379a00000000000000000000000000000000000000000000000000000000081526004016108cc9061265e565b60405180910390fd5b60018060008373ffffffffffffffffffffffffffffffffffffffff1673ffffffffffffffffffffffffffffffffffffffff16815260200190815260200160002060006101000a81548160ff0219169083151502179055508073ffffffffffffffffffffffffffffffffffffffff167f42e160154868087d6bfdc0ca23d96a1c1cfa32f1b72ba9ba27b69b98a0d819dc60405160405180910390a250565b60055481565b60008060149054906101000a900460ff16156109c9576040517f08c379a00000000000000000000000000000000000000000000000000000000081526004016109c0906126ca565b60405180910390fd5b600160008573ffffffffffffffffffffffffffffffffffffffff1673ffffffffffffffffffffffffffffffffffffffff16815260200190815260200160002060009054906101000a900460ff1615610a56576040517f08c379a0000000000000000000000000000000000000000000000000000000008152600401610a4d90612736565b60405180910390fd5b6000600b60008673ffffffffffffffffffffffffffffffffffffffff1673ffffffffffffffffffffffffffffffffffffffff16815260200190815260200160002060003373ffffffffffffffffffffffffffffffffffffffff1673ffffffffffffffffffffffffffffffffffffffff16815260200190815260200160002054905082811015610b1a576040517f08c379a0000000000000000000000000000000000000000000000000000000008152600401610b11906127a2565b60405180910390fd5b8281610b2691906127f1565b600b60008773ffffffffffffffffffffffffffffffffffffffff1673ffffffffffffffffffffffffffffffffffffffff16815260200190815260200160002060003373ffffffffffffffffffffffffffffffffffffffff1673ffffffffffffffffffffffffffffffffffffffff16815260200190815260200160002081905550610bb1858585611b63565b60019150509392505050565b600960009054906101000a900460ff1615610c0d576040517f08c379a0000000000000000000000000000000000000000000000000000000008152600401610c0490612871565b60405180910390fd5b8360029081610c1c9190612a3d565b508260039081610c2c9190612a3d565b5081600460006101000a81548160ff021916908360ff1602179055508060058190555080600a60003373ffffffffffffffffffffffffffffffffffffffff1673ffffffffffffffffffffffffffffffffffffffff16815260200190815260200160002081905550336000806101000a81548173ffffffffffffffffffffffffffffffffffffffff021916908373ffffffffffffffffffffffffffffffffffffffff1602179055506001600960006101000a81548160ff02191690831515021790555050505050565b600660019054906101000a900473ffffffffffffffffffffffffffffffffffffffff1681565b600a6020528060005260406000206000915090505481565b600460009054906101000a900460ff1681565b60085481565b60008054906101000a900473ffffffffffffffffffffffffffffffffffffffff1673ffffffffffffffffffffffffffffffffffffffff163373ffffffffffffffffffffffffffffffffffffffff1614610dd9576040517f08c379a0000000000000000000000000000000000000000000000000000000008152600401610dd09061265e565b60405180910390fd5b600060149054906101000a900460ff16610e28576040517f08c379a0000000000000000000000000000000000000000000000000000000008152600401610e1f90612b5b565b60405180910390fd5b60008060146101000a81548160ff0219169083151502179055507f7805862f689e2f13df9f062ff482ad3ad112aca9e0847911ed832e158c525b3360405160405180910390a1565b600b602052816000526040600020602052806000526040600020600091509150505481565b600060149054906101000a900460ff1681565b6000600a60008373ffffffffffffffffffffffffffffffffffffffff1673ffffffffffffffffffffffffffffffffffffffff168152602001908152602001600020549050919050565b60008054906101000a900473ffffffffffffffffffffffffffffffffffffffff1673ffffffffffffffffffffffffffffffffffffffff163373ffffffffffffffffffffffffffffffffffffffff1614610f7f576040517f08c379a0000000000000000000000000000000000000000000000000000000008152600401610f769061265e565b60405180910390fd5b600060149054906101000a900460ff1615610fcf576040517f08c379a0000000000000000000000000000000000000000000000000000000008152600401610fc6906126ca565b60405180910390fd5b6001600060146101000a81548160ff0219169083151502179055507f6985a02210a168e66602d3235cb6db0e70f92b3ba4d376a33c0f3d9434bff62560405160405180910390a1565b60008054906101000a900473ffffffffffffffffffffffffffffffffffffffff1681565b60038054611049906125e1565b80601f0160208091040260200160405190810160405280929190818152602001828054611075906125e1565b80156110c25780601f10611097576101008083540402835291602001916110c2565b820191906000526020600020905b8154815290600101906020018083116110a557829003601f168201915b505050505081565b60008060149054906101000a900460ff161561111b576040517f08c379a0000000000000000000000000000000000000000000000000000000008152600401611112906126ca565b60405180910390fd5b600160003373ffffffffffffffffffffffffffffffffffffffff1673ffffffffffffffffffffffffffffffffffffffff16815260200190815260200160002060009054906101000a900460ff16156111a8576040517f08c379a000000000000000000000000000000000000000000000000000000000815260040161119f90612736565b60405180910390fd5b6111b3338484611b63565b6001905092915050565b60008054906101000a900473ffffffffffffffffffffffffffffffffffffffff1673ffffffffffffffffffffffffffffffffffffffff163373ffffffffffffffffffffffffffffffffffffffff161461124b576040517f08c379a00000000000000000000000000000000000000000000000000000000081526004016112429061265e565b60405180910390fd5b6014821061128e576040517f08c379a000000000000000000000000000000000000000000000000000000000815260040161128590612bc7565b60405180910390fd5b603281106112d1576040517f08c379a00000000000000000000000000000000000000000000000000000000081526004016112c890612c33565b60405180910390fd5b81600781905550600460009054906101000a900460ff16600a6112f49190612d86565b816112ff9190612dd1565b6008819055507fb044a1e409eac5c48e5af22d4af52670dd1a99059537a78b31b48c6500a6354e60075460085460405161133a929190612e13565b60405180910390a15050565b60008054906101000a900473ffffffffffffffffffffffffffffffffffffffff1673ffffffffffffffffffffffffffffffffffffffff163373ffffffffffffffffffffffffffffffffffffffff16146113d4576040517f08c379a00000000000000000000000000000000000000000000000000000000081526004016113cb9061265e565b60405180910390fd5b80600a60008060009054906101000a900473ffffffffffffffffffffffffffffffffffffffff1673ffffffffffffffffffffffffffffffffffffffff1673ffffffffffffffffffffffffffffffffffffffff16815260200190815260200160002060008282546114449190612e3c565b92505081905550806005600082825461145d9190612e3c565b925050819055507fcb8241adb0c3fdb35b70c24ce35c5eb0c17af7431c99f827d44a445ca624176a816040516114939190612236565b60405180910390a160008054906101000a900473ffffffffffffffffffffffffffffffffffffffff1673ffffffffffffffffffffffffffffffffffffffff16600073ffffffffffffffffffffffffffffffffffffffff167fddf252ad1be2c89b69c2b068fc378daa952ba7f163c4a11628f55a4df523b3ef836040516115199190612236565b60405180910390a350565b60008054906101000a900473ffffffffffffffffffffffffffffffffffffffff1673ffffffffffffffffffffffffffffffffffffffff163373ffffffffffffffffffffffffffffffffffffffff16146115b2576040517f08c379a00000000000000000000000000000000000000000000000000000000081526004016115a99061265e565b60405180910390fd5b80600a60008060009054906101000a900473ffffffffffffffffffffffffffffffffffffffff1673ffffffffffffffffffffffffffffffffffffffff1673ffffffffffffffffffffffffffffffffffffffff168152602001908152602001600020541015611655576040517f08c379a000000000000000000000000000000000000000000000000000000000815260040161164c90612ebc565b60405180910390fd5b80600a60008060009054906101000a900473ffffffffffffffffffffffffffffffffffffffff1673ffffffffffffffffffffffffffffffffffffffff1673ffffffffffffffffffffffffffffffffffffffff16815260200190815260200160002060008282546116c591906127f1565b9250508190555080600560008282546116de91906127f1565b925050819055507f702d5967f45f6513a38ffc42d6ba9bf230bd40e8f53b16363c7eb4fd2deb9a44816040516117149190612236565b60405180910390a1600073ffffffffffffffffffffffffffffffffffffffff1660008054906101000a900473ffffffffffffffffffffffffffffffffffffffff1673ffffffffffffffffffffffffffffffffffffffff167fddf252ad1be2c89b69c2b068fc378daa952ba7f163c4a11628f55a4df523b3ef8360405161179a9190612236565b60405180910390a350565b6000600b60008473ffffffffffffffffffffffffffffffffffffffff1673ffffffffffffffffffffffffffffffffffffffff16815260200190815260200160002060008373ffffffffffffffffffffffffffffffffffffffff1673ffffffffffffffffffffffffffffffffffffffff16815260200190815260200160002054905092915050565b60075481565b60016020528060005260406000206000915054906101000a900460ff1681565b60008054906101000a900473ffffffffffffffffffffffffffffffffffffffff1673ffffffffffffffffffffffffffffffffffffffff163373ffffffffffffffffffffffffffffffffffffffff16146118e0576040517f08c379a00000000000000000000000000000000000000000000000000000000081526004016118d79061265e565b60405180910390fd5b6000600160008373ffffffffffffffffffffffffffffffffffffffff1673ffffffffffffffffffffffffffffffffffffffff16815260200190815260200160002060006101000a81548160ff0219169083151502179055508073ffffffffffffffffffffffffffffffffffffffff167fd7e9ec6e6ecd65492dce6bf513cd6867560d49544421d0783ddf06e76c24470c60405160405180910390a250565b60008054906101000a900473ffffffffffffffffffffffffffffffffffffffff1673ffffffffffffffffffffffffffffffffffffffff163373ffffffffffffffffffffffffffffffffffffffff1614611a0c576040517f08c379a0000000000000000000000000000000000000000000000000000000008152600401611a039061265e565b60405180910390fd5b600073ffffffffffffffffffffffffffffffffffffffff168173ffffffffffffffffffffffffffffffffffffffff1603611a7b576040517f08c379a0000000000000000000000000000000000000000000000000000000008152600401611a7290612f28565b60405180910390fd5b806000806101000a81548173ffffffffffffffffffffffffffffffffffffffff021916908373ffffffffffffffffffffffffffffffffffffffff16021790555050565b60008054906101000a900473ffffffffffffffffffffffffffffffffffffffff1673ffffffffffffffffffffffffffffffffffffffff163373ffffffffffffffffffffffffffffffffffffffff1614611b4c576040517f08c379a0000000000000000000000000000000000000000000000000000000008152600401611b439061265e565b60405180910390fd5b611b5a81600a600554611eb1565b60058190555050565b600073ffffffffffffffffffffffffffffffffffffffff168273ffffffffffffffffffffffffffffffffffffffff1603611bd2576040517f08c379a0000000000000000000000000000000000000000000000000000000008152600401611bc990612f94565b60405180910390fd5b80600a60008573ffffffffffffffffffffffffffffffffffffffff1673ffffffffffffffffffffffffffffffffffffffff168152602001908152602001600020541015611c54576040517f08c379a0000000000000000000000000000000000000000000000000000000008152600401611c4b90613000565b60405180910390fd5b600061271060075483611c679190612dd1565b611c71919061304f565b9050600854811115611c835760085490505b60008183611c9191906127f1565b905082600a60008773ffffffffffffffffffffffffffffffffffffffff1673ffffffffffffffffffffffffffffffffffffffff1681526020019081526020016000206000828254611ce291906127f1565b9250508190555080600a60008673ffffffffffffffffffffffffffffffffffffffff1673ffffffffffffffffffffffffffffffffffffffff1681526020019081526020016000206000828254611d389190612e3c565b925050819055508373ffffffffffffffffffffffffffffffffffffffff168573ffffffffffffffffffffffffffffffffffffffff167fddf252ad1be2c89b69c2b068fc378daa952ba7f163c4a11628f55a4df523b3ef83604051611d9c9190612236565b60405180910390a36000821115611eaa5781600a60008060009054906101000a900473ffffffffffffffffffffffffffffffffffffffff1673ffffffffffffffffffffffffffffffffffffffff1673ffffffffffffffffffffffffffffffffffffffff1681526020019081526020016000206000828254611e1d9190612e3c565b9250508190555060008054906101000a900473ffffffffffffffffffffffffffffffffffffffff1673ffffffffffffffffffffffffffffffffffffffff168573ffffffffffffffffffffffffffffffffffffffff167fddf252ad1be2c89b69c2b068fc378daa952ba7f163c4a11628f55a4df523b3ef84604051611ea19190612236565b60405180910390a35b5050505050565b6000600160008573ffffffffffffffffffffffffffffffffffffffff1673ffffffffffffffffffffffffffffffffffffffff16815260200190815260200160002060009054906101000a900460ff16611f3f576040517f08c379a0000000000000000000000000000000000000000000000000000000008152600401611f36906130cc565b60405180910390fd5b60008360008673ffffffffffffffffffffffffffffffffffffffff1673ffffffffffffffffffffffffffffffffffffffff16815260200190815260200160002054905060008460008773ffffffffffffffffffffffffffffffffffffffff1673ffffffffffffffffffffffffffffffffffffffff168152602001908152602001600020819055508473ffffffffffffffffffffffffffffffffffffffff167f61e6e66b0d6339b2980aecc6ccc0039736791f0ccde9ed512e789a7fbdd698c68260405161200c9190612236565b60405180910390a2808361202091906127f1565b9150509392505050565b600081519050919050565b600082825260208201905092915050565b60005b83811015612064578082015181840152602081019050612049565b60008484015250505050565b6000601f19601f8301169050919050565b600061208c8261202a565b6120968185612035565b93506120a6818560208601612046565b6120af81612070565b840191505092915050565b600060208201905081810360008301526120d48184612081565b905092915050565b6000604051905090565b600080fd5b600080fd5b600073ffffffffffffffffffffffffffffffffffffffff82169050919050565b600061211b826120f0565b9050919050565b61212b81612110565b811461213657600080fd5b50565b60008135905061214881612122565b92915050565b600060208284031215612164576121636120e6565b5b600061217284828501612139565b91505092915050565b6000819050919050565b61218e8161217b565b811461219957600080fd5b50565b6000813590506121ab81612185565b92915050565b600080604083850312156121c8576121c76120e6565b5b60006121d685828601612139565b92505060206121e78582860161219c565b9150509250929050565b60008115159050919050565b612206816121f1565b82525050565b600060208201905061222160008301846121fd565b92915050565b6122308161217b565b82525050565b600060208201905061224b6000830184612227565b92915050565b60008060006060848603121561226a576122696120e6565b5b600061227886828701612139565b935050602061228986828701612139565b925050604061229a8682870161219c565b9150509250925092565b600080fd5b600080fd5b7f4e487b7100000000000000000000000000000000000000000000000000000000600052604160045260246000fd5b6122e682612070565b810181811067ffffffffffffffff82111715612305576123046122ae565b5b80604052505050565b60006123186120dc565b905061232482826122dd565b919050565b600067ffffffffffffffff821115612344576123436122ae565b5b61234d82612070565b9050602081019050919050565b82818337600083830152505050565b600061237c61237784612329565b61230e565b905082815260208101848484011115612398576123976122a9565b5b6123a384828561235a565b509392505050565b600082601f8301126123c0576123bf6122a4565b5b81356123d0848260208601612369565b91505092915050565b600060ff82169050919050565b6123ef816123d9565b81146123fa57600080fd5b50565b60008135905061240c816123e6565b92915050565b6000806000806080858703121561242c5761242b6120e6565b5b600085013567ffffffffffffffff81111561244a576124496120eb565b5b612456878288016123ab565b945050602085013567ffffffffffffffff811115612477576124766120eb565b5b612483878288016123ab565b9350506040612494878288016123fd565b92505060606124a58782880161219c565b91505092959194509250565b6124ba81612110565b82525050565b60006020820190506124d560008301846124b1565b92915050565b6124e4816123d9565b82525050565b60006020820190506124ff60008301846124db565b92915050565b6000806040838503121561251c5761251b6120e6565b5b600061252a85828601612139565b925050602061253b85828601612139565b9150509250929050565b6000806040838503121561255c5761255b6120e6565b5b600061256a8582860161219c565b925050602061257b8582860161219c565b9150509250929050565b60006020828403121561259b5761259a6120e6565b5b60006125a98482850161219c565b91505092915050565b7f4e487b7100000000000000000000000000000000000000000000000000000000600052602260045260246000fd5b600060028204905060018216806125f957607f821691505b60208210810361260c5761260b6125b2565b5b50919050565b7f4f6e6c79206f776e657200000000000000000000000000000000000000000000600082015250565b6000612648600a83612035565b915061265382612612565b602082019050919050565b600060208201905081810360008301526126778161263b565b9050919050565b7f5061757365640000000000000000000000000000000000000000000000000000600082015250565b60006126b4600683612035565b91506126bf8261267e565b602082019050919050565b600060208201905081810360008301526126e3816126a7565b9050919050565b7f53656e64657220626c61636b6c69737465640000000000000000000000000000600082015250565b6000612720601283612035565b915061272b826126ea565b602082019050919050565b6000602082019050818103600083015261274f81612713565b9050919050565b7f416c6c6f77616e63652065786365656465640000000000000000000000000000600082015250565b600061278c601283612035565b915061279782612756565b602082019050919050565b600060208201905081810360008301526127bb8161277f565b9050919050565b7f4e487b7100000000000000000000000000000000000000000000000000000000600052601160045260246000fd5b60006127fc8261217b565b91506128078361217b565b925082820390508181111561281f5761281e6127c2565b5b92915050565b7f416c726561647920696e697469616c697a656400000000000000000000000000600082015250565b600061285b601383612035565b915061286682612825565b602082019050919050565b6000602082019050818103600083015261288a8161284e565b9050919050565b60008190508160005260206000209050919050565b60006020601f8301049050919050565b600082821b905092915050565b6000600883026128f37fffffffffffffffffffffffffffffffffffffffffffffffffffffffffffffffff826128b6565b6128fd86836128b6565b95508019841693508086168417925050509392505050565b6000819050919050565b600061293a6129356129308461217b565b612915565b61217b565b9050919050565b6000819050919050565b6129548361291f565b61296861296082612941565b8484546128c3565b825550505050565b600090565b61297d612970565b61298881848461294b565b505050565b5b818110156129ac576129a1600082612975565b60018101905061298e565b5050565b601f8211156129f1576129c281612891565b6129cb846128a6565b810160208510156129da578190505b6129ee6129e6856128a6565b83018261298d565b50505b505050565b600082821c905092915050565b6000612a14600019846008026129f6565b1980831691505092915050565b6000612a2d8383612a03565b9150826002028217905092915050565b612a468261202a565b67ffffffffffffffff811115612a5f57612a5e6122ae565b5b612a6982546125e1565b612a748282856129b0565b600060209050601f831160018114612aa75760008415612a95578287015190505b612a9f8582612a21565b865550612b07565b601f198416612ab586612891565b60005b82811015612add57848901518255600182019150602085019450602081019050612ab8565b86831015612afa5784890151612af6601f891682612a03565b8355505b6001600288020188555050505b505050505050565b7f4e6f742070617573656400000000000000000000000000000000000000000000600082015250565b6000612b45600a83612035565b9150612b5082612b0f565b602082019050919050565b60006020820190508181036000830152612b7481612b38565b9050919050565b7f4d617820302e3225000000000000000000000000000000000000000000000000600082015250565b6000612bb1600883612035565b9150612bbc82612b7b565b602082019050919050565b60006020820190508181036000830152612be081612ba4565b9050919050565b7f4d61782066656520746f6f206869676800000000000000000000000000000000600082015250565b6000612c1d601083612035565b9150612c2882612be7565b602082019050919050565b60006020820190508181036000830152612c4c81612c10565b9050919050565b60008160011c9050919050565b6000808291508390505b6001851115612caa57808604811115612c8657612c856127c2565b5b6001851615612c955780820291505b8081029050612ca385612c53565b9450612c6a565b94509492505050565b600082612cc35760019050612d7f565b81612cd15760009050612d7f565b8160018114612ce75760028114612cf157612d20565b6001915050612d7f565b60ff841115612d0357612d026127c2565b5b8360020a915084821115612d1a57612d196127c2565b5b50612d7f565b5060208310610133831016604e8410600b8410161715612d555782820a905083811115612d5057612d4f6127c2565b5b612d7f565b612d628484846001612c60565b92509050818404811115612d7957612d786127c2565b5b81810290505b9392505050565b6000612d918261217b565b9150612d9c836123d9565b9250612dc97fffffffffffffffffffffffffffffffffffffffffffffffffffffffffffffffff8484612cb3565b905092915050565b6000612ddc8261217b565b9150612de78361217b565b9250828202612df58161217b565b91508282048414831517612e0c57612e0b6127c2565b5b5092915050565b6000604082019050612e286000830185612227565b612e356020830184612227565b9392505050565b6000612e478261217b565b9150612e528361217b565b9250828201905080821115612e6a57612e696127c2565b5b92915050565b7f496e73756666696369656e740000000000000000000000000000000000000000600082015250565b6000612ea6600c83612035565b9150612eb182612e70565b602082019050919050565b60006020820190508181036000830152612ed581612e99565b9050919050565b7f5a65726f20616464726573730000000000000000000000000000000000000000600082015250565b6000612f12600c83612035565b9150612f1d82612edc565b602082019050919050565b60006020820190508181036000830152612f4181612f05565b9050919050565b7f496e76616c696420746f00000000000000000000000000000000000000000000600082015250565b6000612f7e600a83612035565b9150612f8982612f48565b602082019050919050565b60006020820190508181036000830152612fad81612f71565b9050919050565b7f496e73756666696369656e742062616c616e6365000000000000000000000000600082015250565b6000612fea601483612035565b9150612ff582612fb4565b602082019050919050565b6000602082019050818103600083015261301981612fdd565b9050919050565b7f4e487b7100000000000000000000000000000000000000000000000000000000600052601260045260246000fd5b600061305a8261217b565b91506130658361217b565b92508261307557613074613020565b5b828204905092915050565b7f55736572206e6f7420626c61636b6c6973746564000000000000000000000000600082015250565b60006130b6601483612035565b91506130c182613080565b602082019050919050565b600060208201905081810360008301526130e5816130a9565b905091905056fea2646970667358221220f62956a31694a80f403f199918fe9984fdbad1e93f722947a30110fbbef108ca64736f6c63430008140033",
  "linkReferences": {},
  "deployedLinkReferences": {}
}